:020000040800F2
:10000000E8040020C90000085D1900080D19000867
:1000100000000000000000000000000000000000E0
:10002000000000000000000000000000A719000808
:100030000000000000000000A5190008A919000830
:10004000DB00000800000000DB000008DB00000807
:10005000DB000008DB000008DB000008DB00000814
:1000600000000000DB000008DB000008DB000008E7
:10007000DB000008DB000008DB00000800000000D7
:10008000DB000008DB00000800000000DB000008C7
:10009000DB000008DB000008DB000008DB000008D4
:1000A000DB000008DB000008DB000008111E000870
:1000B000DB0000080348854600F06AFA0048004764
:1000C0003D270008E8040020044880470448004712
:1000D000FEE7FEE7FEE7FEE7FEE7FEE7191A000887
:1000E000B500000830B50B4601460020202201244F
:1000F00009E00D46D5409D4205D31D469540491B5C
:100100002546954040191546521E002DF1DC30BDA4
:1001100070B500242546002801DA01244042002958
:1001200001DA01254942FFF7DDFFAC4200D0404231
:10013000002C00D0494270BD10B5202A04DB0846CF
:10014000203AD040002110BD0B46D340D04020249F
:10015000A21A91400843194610BD00000549064AFD
:1001600008685043054A80180860400870470149F4
:10017000086070470C0000206D4EC6413930000009
:10018000D2B201E00270401C491EFBD2704700222F
:10019000F6E710B513460A4604461946FFF7F0FF86
:1001A000204610BDF0B51FB40646002082B00546BB
:1001B0004024019100901BE0019922460F463046F1
:1001C000FFF7BAFF049A059B801A994110D3104695
:1001D0001946224600F0EEF9361A8F410197224661
:1001E00001200021009F00F0E5F938184D410090F2
:1001F0002046641E0028DFDC019B00982946324619
:1002000007B0F0BDF0B507460846584087B0C00FAC
:10021000049048000E46590040084908BC1A88411D
:1002200005D2384631461E4617460B460246580050
:10023000400810434CD0300D039040055900400D4C
:10024000490D0590401A0290402872DA18030121E6
:10025000000B09050843019004980092002805D07E
:100260000199524200208841009201900298402159
:100270000A1A0199009800F09DF905460C466B4654
:1002800007CB00F0A7F9C0197141039A0E0D0023A6
:10029000D71756401A467A40164344D0049A002A8B
:1002A0002DD0029A012A039A15DC1205C01A914139
:1002B00001263605001C7141D20F059ED20700931E
:1002C000019202962A46234600F0A4F907B0F0BD39
:1002D00038463146FAE71605224A0F46B218C01AC8
:1002E000B74101210905001C4F4100187F4111460B
:1002F00018187941E20F10436D19644113E0E207C9
:100300006D0815436408C2071443039A01261205B9
:10031000C01A91413605001C7141CE074008304398
:100320004908C01851412A46234600F066F9CDE736
:10033000FFE7049801224000C117121A00238B41E5
:1003400004983146C417381AA141EEE730B40124AD
:10035000E407634030BC55E730B40124E407614052
:1003600030BC4FE70000E0FFF0B51FB488B00B9938
:100370000998002448400999C00F4900490809918B
:10038000C0070B990090490049080B9109990898FA
:10039000A64608431CD00B990A98084318D0099820
:1003A00001244000420D4800410D09982405000336
:1003B000000B204309900B980003000B20430B9087
:1003C00050181C494018002201901446104605E0C0
:1003D000002001460DB0F0BD032801DA034600E01D
:1003E00003239C46C11A0AAE0AE05F0008ADED5B2C
:1003F0004F00F75B7D430027AA187C41491C5B1E18
:100400006145F2DD410004AB5A522104120C0A434B
:10041000240C401C0828DFDB0198029000997046EC
:1004200001910090059B049A0799069800F0F2F854
:10043000D0E700000DFCFFFFF0B50C465C4085B036
:10044000E40FE40703944C00002664085900944626
:10045000490802460296224321D062460A431ED032
:100460006200570D4A000E032303550D0124024676
:100470002C492405781B1B0B360B401823432643BD
:10048000614600901C46501AB44103D30098401CAA
:10049000009002E0921800985B41002803DA0020E7
:1004A000014605B0F0BD002001210905074686463A
:1004B00011E064461D46141BB54106D36546521B28
:1004C000B341744607430C43A646CD07400849088C
:1004D000284392185B4105460D43EAD11046184364
:1004E00013D06046194650407140084306D060461C
:1004F000101AB34106D20122002306E00022012394
:10050000DB0702E00122D243531000987446010534
:10051000381C6141029C039D0019694100F06DF88F
:10052000BFE70000FD0300004A0009030123090B97
:100530001B0519430A4B10B5520D9A4202DA0020EE
:10054000014610BD064B34339A4203DC9A1AFFF77A
:10055000F3FD10BD034BD21800F02CF810BD0000C5
:10056000FF030000CDFBFFFF10B5002904DB0124D1
:10057000E40740428C412146002B04DB1C4601234A
:10058000DB075242A341994200D1904210BD0000C6
:10059000064C0125064E05E0E36807CC2B430C3CD6
:1005A00098471034B442F7D3FFF788FD942700082A
:1005B000B427000810B5202A04DB0146203A9140F8
:1005C000002010BD914020239C1A0346E3401943AC
:1005D000904010BD10B5202A06DBCB170846203A04
:1005E0001041C1170B4306E00B461341D0402024B5
:1005F000A21A91400843194610BD10B5002B08DA25
:100600000024401C614192185B411A4301D140080B
:10061000400010BDF0B51FB482B005460C0003D0F9
:10062000084601F00FFC02E001F00CFC203002460D
:10063000009021462846FFF7BDFF049B059A04461B
:100640000F4618431143084314D0184610431BD0DB
:10065000009840210A1A18460599FFF76DFD0546D6
:100660000E46009A05990498FFF7A4FF084305D0A9
:10067000012004E02046394607B0F0BD0020C11734
:1006800005430E432C43374300990E986305401AE7
:100690007905E40A00220C43FD0A0A3002D5002045
:1006A0000146E9E70105101969410C9C0D9D0019EF
:1006B0006941FFF7A2FFDFE700487047080000200C
:1006C00010B50B49094A0A60486000208860C8607C
:1006D00008610C2288614A61C861084601F010F87F
:1006E00001220449024801F067F810BD00380140BA
:1006F0007400002008000020F0B58BB006460127EA
:1007000000F04EF900F080F900285DD130A002F031
:1007100007F834A002F004F828216846FFF737FDF7
:1007200028220021684600F09AF900256C46615D98
:1007300033A001F0F5FF6D1CADB2282DF7D332A028
:1007400001F0EEFF32A001F0EBFF3848FFF70FFD9C
:1007500028216846FFF71BFD0025FF27002E02D049
:10076000012E07D007E0FFF7F9FCFF21FFF7D0FCCF
:10077000615500E06755615D21A001F0D1FF6D1C5E
:10078000ADB2282DEAD320A001F0CAFF2822002113
:10079000684600F014FA26A001F0C2FF282168463E
:1007A000FFF7F5FC28220021684600F058F90746BB
:1007B0000025615D12A001F0B3FF6D1CADB2282DC4
:1007C000F7D311A001F0ACFF38460BB0F0BD00002C
:1007D000454550524F4D2049732052656164790D53
:1007E0000A000000454550524F4D2044617461207D
:1007F000526561644F7574203A0D0A0D0A000000BD
:1008000030782558200000000D0A0D0A0000000075
:10081000454550524F4D20446174612057726974B0
:1008200065496E203A0D0A0D0A00000037120000DB
:10083000454550524F4D20446174612052656164BA
:100840004F757420416761696E203A0D0A0D0A00E8
:10085000F0B58BB00646012700F0A2F800F0D4F8FE
:1008600000285AD12EA001F05BFF32A001F058FF02
:1008700028216846FFF78BFC00256C466119284645
:1008800000F020F9615D32A001F04AFF6D1CADB2AD
:10089000282DF3D330A001F043FF31A001F040FF39
:1008A0003648FFF764FC28216846FFF770FC0025F6
:1008B000002E02D0012E07D008E0FFF74FFCFF21E9
:1008C000FFF726FC615501E0FF206055615D284679
:1008D00000F0F0F9615D1EA001F022FF6D1CADB2C9
:1008E000282DE5D31CA001F01BFF25A001F018FF67
:1008F00028216846FFF74BFC00256119284600F0C7
:10090000E1F80746615D12A001F00AFF6D1CADB26F
:10091000282DF2D310A001F003FF38460BB0F0BD34
:10092000454550524F4D2049732052656164790D01
:100930000A000000454550524F4D2044617461202B
:10094000526561644F7574203A0D0A0D0A0000006B
:1009500030782558200000000D0A0D0A0000000024
:10096000454550524F4D204461746120577269745F
:1009700065496E203A0D0A0D0A000000371200008A
:10098000454550524F4D2044617461205265616469
:100990004F757420416761696E203A0D0A0D0A0097
:1009A00070B5184886B04269012149040A43426182
:1009B00042690A40059242690A4342614069092638
:1009C00008400590102001250024F6060090694695
:1009D00001950394304600F041FAA02000900320D6
:1009E000039001956946304600F038FA40200090A7
:1009F000019469460294304600F030FA002006B0B7
:100A000070BD00000010024070B500F0D7FA092553
:100A10000446ED0600221021284600F0C8FA052001
:100A200000F0A0F8143400F071F8C00703D000F013
:100A3000C5FAA042F7D301221021284600F0B7FAE8
:100A40000020FF21913100BF401C8842FBDB00F0F9
:100A5000B5FAA04201D3012070BD002070BDF8B5E9
:100A6000002617460C460546002A12D0002D10D04D
:100A7000092000221021C00600F099FA032000F09E
:100A800071F8200A00F06EF8E0B200F06BF8002474
:100A900007E00120F8BD00F039F8641C2870A4B20A
:100AA0006D1CBC42F7D3092001221021C00600F0C2
:100AB0007EFA0020FF21913100BF401C8842FBDB01
:100AC0003046F8BD70B509260D460446F6060022EC
:100AD0001021304600F06BFA032000F043F8200AA2
:100AE00000F040F8E0B200F03DF800F00FF8287098
:100AF00001221021304600F05AFA0020FF219131E6
:100B000000BF401C8842FBDB002070BD70B508258B
:100B100000240926F60600222021304600F047FA7C
:100B200000BF00BF022000BF401C3228FBDB0122B7
:100B30002021304600F03BFA00BF00BF022000BF7A
:100B4000401C3228FBDB6006040E4021304600F0DA
:100B500029FA012800D104436D1E2D062D0EDAD18D
:100B6000204670BD70B5082409260546F6062806FD
:100B700001D5012200E000228021304600F017FA62
:100B800000222021304600F012FA00BF00BF0220F0
:100B900000BF401C3228FBDB01222021304600F040
:100BA00006FA00BF00BF022000BF401C3228FBDB5A
:100BB0006806641E050E2406240ED8D170BDF7B554
:100BC000C8060F46C00E82B020210C1A0190D00634
:100BD000C00E154656090090FFF716FF002806D0F4
:100BE000FFF712FF002802D0012005B0F0BD0198E8
:100BF000002818D0F806C00E2021081A38180190D5
:100C0000002E2CD0281B80B2C6064509F60E2246BF
:100C10003946029800F0A0F80028E6D1019887B282
:100C20000298041939E0002E2BD00BE0202239461F
:100C3000029800F091F80028D7D120370298BFB26F
:100C4000203002903046761EB6B20028EED1009ACF
:100C50003946029800F080F80028C6D128E00098B4
:100C6000A0420ED9001B85B222463946029800F0F8
:100C700073F80028B9D101982A4681B20298001968
:100C8000E8E72A46E4E720223946204600F064F8E7
:100C90000028AAD12037BFB2203428466D1EADB23D
:100CA0000028F0D1002E03D0324639462046D1E745
:100CB00000209AE7F8B50F460646FFF7A5FE002884
:100CC00005D0FFF7A1FE002801D00120F8BD0924BE
:100CD000E40600221021204600F069F90620FFF703
:100CE00041FF01221021204600F061F90020FF257C
:100CF000913500BF401CA842FBDB0022102120469A
:100D000000F055F90220FFF72DFF300AFFF72AFF08
:100D1000F0B2FFF727FF3846FFF724FF012210212A
:100D2000204600F044F9002000BF401CA842FBDB35
:100D300000221021204600F03AF90420FFF712FFAC
:100D400001221021204600F032F9002000BF401C93
:100D5000A842FBDB0020F8BDF8B505460020174689
:100D60000C460090002A09D0002D07D0FFF74CFE5A
:100D7000002805D0FFF748FE002801D00120F8BD6B
:100D80000926F60600221021304600F010F9062050
:100D9000FFF7E8FE01221021304600F008F900209C
:100DA000FF26913600BF401CB042FBDB0920002229
:100DB0001021C00600F0FBF80220FFF7D3FE200A46
:100DC000FFF7D0FEE0B2FFF7CDFE002405E0287863
:100DD000FFF7C8FE641CA4B26D1CBC42F7D3092403
:100DE000E40601221021204600F0E1F8002100BFB6
:100DF000491CB142FBDB00221021204600F0D7F84D
:100E00000420FFF7AFFE01221021204600F0CFF8AA
:100E10000098F8BD70B50024014620314A78022AB6
:100E200003D004218163012416E0026813680E25B3
:100E3000AB431360026813685B085B001360012218
:100E4000056C1346AB40C56B6B604A7000220A709C
:100E5000416B002900D08847204670BDF8B50023BB
:100E60008DE001249C40A44622407DD04C68022C99
:100E700001D0122C0CD1DC08A40027183C6A5D07B5
:100E8000ED0E0F26AE40B4430E69AE4026433E62DF
:100E900005685E000324B4400F79A543BF07BF0F68
:100EA000B7402F4307604D68012D05D0022D03D0B8
:100EB000112D01D0122D0ED18568CF68A543B74002
:100EC0002F43876047686546AF430D79ED06ED0F08
:100ED0009D403D434560C568A5438C68B4402C43A4
:100EE000C4604C68E40049D5284CA5690126354307
:100EF000A561A4699D0834400094254CAD002F19CC
:100F0000BC689D072E0F0F25B540AC430925ED06A3
:100F1000A84201D100250FE01E4DA84201D10125B4
:100F20000AE01D4DA84201D1022505E01B4DA84253
:100F300001D1032500E00525B5402543BD60184CCF
:100F400025684E689543F60300D51543256065680E
:100F50004E689543B60300D515436560A5684E6895
:100F60009543F60202D500E008E01543A560E56868
:100F70004E689543B60200D51543E5605B1C0A68D0
:100F80001446DC4000D06CE7F8BD000000100240C1
:100F9000000001400004004800080048000C004820
:100FA000000401400069084000D001207047002A79
:100FB00001D081617047816270470000014800687C
:100FC000704700000400002002480168491C0160CD
:100FD000704700000400002010B506480168102288
:100FE00011430160002000F007F800F017F800201E
:100FF00010BD00000020024010B5044600F0CEF8FD
:101000007D21C900FFF76EF800F0D2FA00222146D8
:10101000501E00F029F8002010BD000008B50C4853
:101020008169012211438161806910400022009092
:101030001146501F00F018F800221146901E00F0D3
:1010400013F800221146501E00F00EF808BD0000F3
:1010500000100240C106C90E012088400149086005
:101060007047000000E100E010B500F079FC10BD11
:10107000F8B5054644480E460068C007C00FB042A8
:101080000AD24148016849084900314301600068BB
:10109000C007C00FB0425CD128783C4C800705D512
:1010A0006068F0218843A968084360602878C00719
:1010B0003FD06868012813D02168022813D089071F
:1010C000002946DA61688908890001436160FFF7F9
:1010D00075FF6968074601290DD0022917D024E061
:1010E00021688903ECE78901EAE7FFF767FFC11B85
:1010F0002748814217D860680007800F0128F4D183
:1011000017E0FFF75BFFC11B214881420BD86068E5
:101110000007800F0228F4D10BE0FFF74FFFC11B3F
:101120001B48814201D90320F8BD60680007800F89
:10113000F3D115480168C907C90FB1420BD901683D
:1011400049084900314301600068C007C00FB04240
:1011500001D00120F8BD2878400706D56068072136
:1011600009028843E9680843606000F02DF861686F
:10117000084A0906090F515CC84007490860002069
:10118000FFF73AFF0020F8BD0020024000100240A7
:10119000881300007C270008000000200148006838
:1011A00070470000000000200448054900684968B5
:1011B000044A4905490F515CC840704700000020AF
:1011C000001002408C27000810B512A30FCB88B086
:1011D0006C460FC413A30FCB0FC416494A680C20EA
:1011E000134603401448042B0FD0082B0DD1930253
:1011F0001B0F6C46E45CC96A04AB0907090F595C14
:10120000D20304D5FEF76EFF604308B010BD0B4853
:101210006043FAE702030405060708090A0B0C0DF0
:101220000E0F10100102030405060708090A0B0C33
:101230000D0E0F100010024000127A0000093D0050
:10124000FEB504460078D04DC00747D06868000757
:10125000800F012807D068680007800F022809D195
:101260006868C00306D52868800337D56068002801
:101270007ED033E0012062680004012A11D0810091
:10128000002A01D0052A10D02A6882432A602868E3
:10129000884328606068002814D0FFF78FFE064658
:1012A0000CE0296801432960F4E72A680A432A60B0
:1012B000F7E7FFF783FE801B64286FD82868800358
:1012C000F7D50BE0FFF77AFE064604E0FFF776FE5F
:1012D000801B6428F1D828688003F7D42078012681
:1012E000800700283BDA68680007800F07D068682D
:1012F0000007800F022809D16868C00306D4286857
:10130000800715D5E068012832D111E0E068002897
:10131000286815D030432860FFF750FE074604E0E8
:10132000FFF74CFEC01B0228C7D828688007F7D5F6
:101330002868F82188432169C900084328600EE025
:10134000400840002860FFF739FE074604E0FFF739
:1013500035FEC01B0228B0D828688007F7D4207853
:10136000000724D5E0690028686A10D0304300E007
:1013700008E16862FFF722FE074604E0FFF71EFE61
:10138000C01B022899D8686A8007F7D50FE040088B
:1013900040006862FFF712FE074605E09DE0FFF798
:1013A0000DFEC01B022888D8686A8007F7D4207811
:1013B00004274007002860DA00200190E869C00097
:1013C00008D4E969B8060143E961E96901400120EF
:1013D000009101906D480168C90511D4016882151A
:1013E00011430160FFF7EAFD009005E0FFF7E6FD1D
:1013F0000099401A642870D864480068C005F5D583
:10140000A06801280AD0002801D0052810D0286A39
:10141000400840002862286AB84301E0286A304347
:101420002862A068002812D0FFF7C8FD00900AE0EB
:10143000286A38432862F1E7FFF7C0FD0099411A96
:101440005348814249D8286A8007F5D50DE0FFF757
:10145000B5FD009006E0FFF7B1FD0099411A4C4838
:1014600081423AD8286A8007F5D40198002804D030
:10147000E969012000078143E9612078C00635D57C
:10148000606901280CD0401D686B23D03843686325
:10149000686B400840006863FFF790FD064622E055
:1014A000686B38436863686B30436863FFF786FD99
:1014B000064604E0FFF782FD801B02285BD8686BBC
:1014C0008007F7D5686BF8218843A169C9000843F4
:1014D00068630BE0B8436863F4E74CE0FFF76EFD28
:1014E000801B022847D8686B8007F7D4206A002841
:1014F00046D069680907890F022943D001263606BC
:101500000228286805D0B0432860FFF757FD04463D
:1015100033E0B0432860FFF751FD074604E0FFF7D2
:101520004DFDC01B022826D828688001F7D4E86A40
:10153000E16A000900010843E862616AA06A0843A1
:1015400069683D221204914308436860286830436B
:101550002860FFF733FD044604E0FFF72FFD001B72
:10156000022808D828688001F7D509E0FFF726FD92
:10157000001B022801D90320FEBD28688001F5D494
:101580000020FEBD0120FEBD0010024000700040A2
:1015900088130000042204490428086902D09043FB
:1015A000086170471043FBE700E000E0704700006F
:1015B000094910B5401E884201D9012010BD074CD1
:1015C00060610321081F00F0CBF90020A061072013
:1015D0002061002010BD0000FFFFFF0000E000E0E0
:1015E00010B5FFF7E3FF10BD70470000F8B50368C2
:1015F0000446D96918680D072D0F07D18A0605D54D
:10160000820603D5204600F0C9FAF8BD9A68002D7D
:1016100064D0D507ED0FFF26213606402E435DD05E
:10162000CE0706D0C60504D501261E62E36E3343FD
:10163000E3668F0702230426002F06DAD70704D0BB
:1016400027683B62E76E3743E7664F0706D5D20748
:1016500004D022681662E26E1A43E2660A0709D5D0
:10166000202202402A4305D0236808221A62E36E32
:101670001343E366E26E002AC7D0890604D58006CC
:1016800002D5204600F08AFAE06E000703D42068F5
:10169000806840061CD5204600F064FA2068816806
:1016A000490611D58168402291438160606E00280F
:1016B0000AD012494163606EFFF7ACFB0028A4D04A
:1016C000606E416B8847F8BD2046FFF78DFFF8BD7F
:1016D0002046FFF789FF0020E066F8BD0A0605D521
:1016E000020603D5204600F02FFBF8BD4906FCD5C5
:1016F0004006FAD5204600F044FAF8BD511B000818
:1017000070B5040005D025466035687A002802D0FF
:1017100006E0012070BD00202872204600F026F867
:101720002420687220680168490849000160204649
:1017300000F072FA0128EDD0606A002802D020463D
:1017400000F098F9206841680122D202914341607B
:101750002068816808229143816020680168012225
:1017600011430160204600F0EAF970BD00B5006841
:101770000F4987B0884218D10E4882690121890338
:101780000A4382618069084005900320400200906E
:101790000220019000200290032003900120049079
:1017A00009206946C006FFF759FB07B000BD0000DD
:1017B000003801400010024070B5034660339C7A47
:1017C000202C39D100290BD0002A09D001258468AA
:1017D0002D03AC4206D10669002E03D1CE0701D0FD
:1017E000012070BD1E7A012E26D001261E72416591
:1017F000014640310A834A83FF22AC4204D1046986
:10180000002C07D10D4A05E0002C04D10469002CFE
:1018100000D07F228A830021C16622229A72197227
:1018200001688A6832438A6000680168FF222132B9
:1018300011430160002070BD022070BDFF01000057
:101840007047FFB5064604466036707A83B00D4691
:10185000202858D1002D0CD00598002809D001204F
:10186000A1680003814207D12069002804D1E8075C
:1018700002D0012007B0F0BD307A012843D001200A
:1018800030720020E06621207072FFF797FB019014
:1018900027464037059838820598788218E0788A7C
:1018A000401E788206980090002280212046019BED
:1018B00000F07DFA002818D10120A16800038142C0
:1018C00002D12069002812D02168287808856D1C73
:1018D000788A0028E3D10698009000224021204613
:1018E000019B00F064FA002808D00320C2E7288892
:1018F0002168C005C00D0885AD1CE9E72020707285
:1019000000203072B6E70220B4E77047FEE710B55A
:10191000002211461B20FFF7A7FB1B20FFF79AFBB5
:1019200010BD000010B50C480A490160E1214902D0
:10193000416000218160C16001618161C1610C224F
:10194000016242614162FFF7DBFE002800D0FEE742
:1019500010BD0000003801407400002070470000F6
:101960008307FF22DB0E9A408907090E9940002861
:101970000BDA0007000F0838830808489B00181886
:10198000C36993430B43C3617047830804489B00BA
:101990001B181868904308431860704700ED00E07A
:1019A00000E400E07047704710B5FFF70DFBFFF74C
:1019B00017FE10BD30B591B00120019000900004D9
:1019C00009908000022500240A9008950B9468462F
:1019D000FFF736FC002800D0FEE707200C900E949D
:1019E00000210D950F940CA8FFF742FB002800D0B2
:1019F000FEE7FFF7D3FB7D21C900FEF773FBFFF77E
:101A0000D7FD0420FFF7C6FD00221146501EFFF748
:101A10002BFB11B030BD00001348016801221143B7
:101A200001604168114A114041600168104A11404B
:101A300001600168012292049143016041683F22E4
:101A4000120491434160C16A09090901C162016B35
:101A5000FF22143291430163416B490849004163FD
:101A60000021816070470000001002400CB8FF08A0
:101A7000FFFFF6FE10B5818CC90707D001684A68E0
:101A800001235B049A43836A1A434A60818C890765
:101A900007D501684A6801231B049A43C36A1A43A5
:101AA0004A60818C490707D501684A6801239B0475
:101AB0009A43036B1A434A60818C090707D5016872
:101AC0004A680123DB039A43436B1A434A60818CC3
:101AD000C90607D50268916801231B039943836BEC
:101AE00019439160818C890607D501688A680123B2
:101AF0005B039A43C36B1A438A60818C490612D5F3
:101B000003685A6801210905046C8A4322435A601C
:101B1000026C8A4207D10268516803235B0599432E
:101B2000436C19435160818C090607D501684A68E6
:101B30000123DB04806C9A4302434A6010BD0021FC
:101B4000C16620226030427282720172084670477C
:101B500010B5406A0022014640314A834A82FFF7AD
:101B600043FD10BD01680A68FF2321339A430A60D0
:101B700001688A68520852008A60202160308172B0
:101B8000704710B501680A6840239A430A60202212
:101B900069210A54FFF7B9FE002010BD70B5024656
:101BA000403203466033948B9D7A0168222D05D024
:101BB0008869082210438861022070BD898C012643
:101BC00085683603B54202D10569002D0BD021404E
:101BD000446D651C45652170518B491E0904090C33
:101BE000518307D015E0456D21402980416D891C46
:101BF0004165F1E701680A68FF242134A2430A60C5
:101C000001688A68520852008A6020219972FFF7A1
:101C100017FE002070BD0000F8B504462369A268D5
:101C2000E5691A43636910202B43002125681A4394
:101C30002B680E463E4F3B4013432B6023685A6887
:101C400003252D03AA43E5682A435A60236AA26943
:101C500025681A43AB680B273F02BB431343AB60B5
:101C6000344A2568954210D1334A126B9207920F7D
:101C70000ED0012A05D0022A05D0032A09D102205C
:101C800007E0042005E0082003E02C4A954200D13B
:101C900000200122E369D203934224D100280CD012
:101CA00002280DD0042813D0082817D001260A09CD
:101CB00012010807400F10432FE0FFF775FA09E003
:101CC00061681F4A48088018FEF70CFA81B2EEE7F7
:101CD000FFF77AFA616840004A08F4E76168012278
:101CE00048081204EFE7002808D0022809D0042889
:101CF0000BD0082814D001263046F8BDFFF754FA5F
:101D000005E061680F4A48080CE0FFF75DFA61687A
:101D10004A088018FEF7E6F980B22168C860EBE750
:101D2000616848088018FEF7DDF980B2E860E3E7F3
:101D3000F369FFFF003801400010024000440040FA
:101D40000024F40000127A006921095C212901D0E5
:101D50000220704702464032518A002912D00123E6
:101D600081681B03994202D10169002915D0C16C19
:101D70004B1CC364006809780185508A401E50825C
:101D80000020704701680A6880239A430A6000684F
:101D90000168402211430160F2E7C16C03680988C1
:101DA000C905C90D1985C16C891CC164E5E7FFB57A
:101DB00081B017460E4604460A9D1DE0681C1BD0E4
:101DC000002D05D0FFF7FAF80499401AA84213D95C
:101DD00020680168FF22A132914301602068816878
:101DE000490849008160202060346072A0720020A0
:101DF0002072032005B0F0BD2068C16930468843D9
:101E000004D00020B842D9D00020F3E70120F9E740
:101E100010B50548FFF7EAFBFEF74EFC014601222C
:101E20000148FFF7C9FC10BD7400002070B51446CE
:101E30000D460246024B2146284600F0D5F870BDFB
:101E4000352700082021020C01D010211046020A7B
:101E500001D010460839020901D01046091F820836
:101E600001D01046891E420801D0881E7047081A0A
:101E7000704702E008C8121F08C1002AFAD1704753
:101E80007047002001E001C1121F002AFBD17047FA
:101E9000F0B51FB484B007980699020D014314D021
:101EA0004A484B491018484305140F9801280E98CA
:101EB0001CD0281A401C0024464E4749009401912A
:101EC0000290002814DA474227E00F98012443A328
:101ED000012808D0002104980F9A84600360C26032
:101EE000416009B0F0BD0E98C143F4E74042E2E71B
:101EF000074612E0F80707D02246334601990098BA
:101F0000FEF732FA019100902246334610461946F8
:101F1000FEF72AFA04460E467F10002FEAD10298F7
:101F2000019B0028009A0799069802DAFEF71CFA2E
:101F300001E0FEF781FA04460E460022284BFEF728
:101F400013FB03D80020C043014607E00022254BC5
:101F500020463146FEF756F9FEF7E6FA102409E06E
:101F6000002C0ADB0A220023FEF71CF9059B303205
:101F70001A55641E02460A43F2D11122641C059BC5
:101F8000121B1C190F9B012B03D0012308430ED1F8
:101F90000AE0084304D011200E9000200F9084E73F
:101FA0000E98151A6D1E0BE00E98824202DD00237A
:101FB0006D1C03E0824201DA00236D1E002BEED07F
:101FC00004980F998260C16030C08AE701FCFFFF6E
:101FD000104D0000000024400000F03F30000000E1
:101FE0000000F0430000E03FFFB597B00646002533
:101FF00018E2252877D100242746FD49049400E003
:102000000443761C32780120203A90400842F7D1F0
:1020100030782A280ED0022230780146303909293A
:1020200016D804990A235943303940181443761CB2
:102030000490F1E7189802C804911890002904DA76
:102040000120400304434842049002200443761CCC
:1020500030782E2814D1042004437078761C2A2866
:1020600009D11898761C80C8189009E00A214F43BE
:10207000303FC719761C3078014630390929F5D927
:1020800030786C2810D006DC4C281AD068280ED086
:102090006A2817D104E0742813D07A2812D110E0EE
:1020A0000120400504430CE00121090501E0032162
:1020B00009050C437178814203D1012000052418E1
:1020C000761C761C3078119066280BD013DC5828CB
:1020D0007DD009DC00287BD04528F6D04628F4D0F6
:1020E00047281AD1A5E118E0632835D0642870D0BC
:1020F000652812D19DE170286CD008DC6728F1D0EA
:1021000069287BD06E280DD06F2806D1BAE07328DD
:102110002ED0752871D0782859D01A9A19999047DD
:102120006D1C7EE16002400F022809D003280DD00B
:102130000428189801680DD00D60001D189070E1FA
:102140001898EA1701680D604A60F6E71898016868
:102150000D80F2E70D70F0E718986A460178117269
:10216000001D18900020507202A80090012005E088
:10217000189802C8189000200091C04361070DD53F
:10218000002101E00199491C0191B94212DA814212
:10219000F8DB009A515C0029F4D10BE0002101E04A
:1021A0000199491C01918142FADB019A0099895CED
:1021B0000029F5D1019904981A9B471A21463846FF
:1021C000199A00F097FA0199401945180BE04FE071
:1021D0002CE113E04EE0009800990078491C009132
:1021E0001A9A199990470198401E0190401CF2D10B
:1021F000214638461A9B199A10E137E00A2000213F
:10220000009001916002410F022907D0189A01CA7B
:102210001892C2179446032908D00AE01898C01DE6
:10222000C108C90005C91891944607E000B2C21759
:102230009446042902D140B2C1178C46002261465F
:10224000944506DA0A460021404291418C462D21F0
:1022500002E0210504D52B216A461173012103E018
:10226000E10701D02021F7E7029155E00A200AE0BA
:10227000102008E010200090002104200443019168
:10228000082703E008200021019100906002410F1F
:10229000022907D0189A01CA1892002294460329ED
:1022A00008D008E01898C01DC108C90005C91891D8
:1022B000944603E080B2042900D1C0B2002102910B
:1022C000210729D51199702906D0009A1021019B68
:1022D0004A401A4305D00EE040216A46117301219D
:1022E00008E06146014306D030216A461173119916
:1022F000517302210291009A0821019B4A401A431E
:102300000AD16146014301D1610705D530216A46F2
:10231000117301217F1E02911199582904D035A112
:102320000E910DA90D910DE037A1F9E76146019BD2
:10233000009AFDF737FF0E9B8C469B5C0D9A521E50
:102340000D92137061460143F0D10D9805A9081A4A
:1023500020300190600703D501200004844300E091
:1023600001270198874201DD381A00E00020019919
:1023700000904118029809180498401A0490E0034C
:1023800006D421461A9B199A049800F0B3F945190E
:10239000002706E003A81A9AC05D199990476D1CA2
:1023A0007F1C02988742F5DBE0030CD521461A9B7F
:1023B000199A049800F09EF9451904E01A9A302001
:1023C000199990476D1C0099481E00900029F5DC72
:1023D00008E00D980D990078491C0D911A9A1999E9
:1023E00090476D1C0199481E01900029F1DC63E1C2
:1023F00009280100303132333435363738396162DB
:10240000636465660000000030313233343536379E
:1024100038394142434445460000000000F05AF973
:102420004519761C3078002800D0E2E528461BB01C
:10243000F0BD600700D406271898C01DC108C90068
:1024400048680A680831C30FDB071891190001D0EA
:102450009CA108E0210501D59BA104E0E10701D082
:102460009AA100E09AA1430011985B081091652899
:102470000CD006DC452809D046281DD0472841D17C
:1024800041E0662818D067283CD13CE00021112F9C
:1024900001DB112000E0781C0191009008A911A82F
:1024A000FFF7F6FC139905910021119A15927F1CF4
:1024B00012980197009150E00120C007039001207D
:1024C000019008A9009711A8FFF7E2FC139A14994C
:1024D00005920022119B009212981593059A019281
:1024E000002901D0104602E0791C40180190381AEA
:1024F00001D5019804E04042401E0090781C0190F4
:10250000C01B029043E0012F00DA01270021112FA8
:1025100001DD112000E038460191009008A911A8C2
:10252000FFF7B6FC13990591119A002112981592A4
:102530000091019721070CD40599B94201DB01995B
:1025400000E00191012904DD159A491E515C3029F2
:1025500006D0B84201DA011D05DA0121029115E029
:102560000199491EEDE7002805DC0099411800910A
:102570000199091A03E0019A411C914200DD019181
:102580000099401A401C02900120C00703902007C8
:1025900006D402990198814202DB0020C0430290D8
:1025A00000206946C87707AF012103980337C907A0
:1025B000884224D0022011902B20129003980028EA
:1025C0000CDA404203902D20129007E00A21039874
:1025D000FDF788FD30317F1E039039701199481E38
:1025E00011900029F2DC03980028EFD1791E12988F
:1025F00008703078202108404530BF1E387006A88A
:10260000C01BC01D039010980078002800D0012046
:10261000019941180298C0170918039809180498DD
:10262000401A401E0490E00306D421461A9B199AD2
:10263000049800F05FF8451910980078002803D03E
:102640001A9A199990476D1CE00324D521461A9BCC
:10265000199A049800F04EF845191CE000980028DB
:1026600007DB00990598884203DD1598405C1999AD
:1026700001E0199930201A9A904700986D1C401C6F
:1026800000900298401E0290002804D11A9A2E2031
:10269000199990476D1C0199481E01900029DDDCB5
:1026A00005E038781A9A7F1C199990476D1C039998
:1026B000481E03900029F4DC21461A9B199A0498BD
:1026C000ACE600002D0000002B0000002000000000
:1026D00000000000F8B5044600251E461746880491
:1026E00004D405E039462020B0476D1C641EF9D59E
:1026F0002846F8BDFFB50446002581B01E46C80334
:1027000001D5302700E02027880404D505E03846AD
:102710000399B0476D1C641EF9D5284605B0F0BD7D
:102720000FB410B503AA0299FFF780FB10BC08BCD8
:1027300004B0184710B500F015F810BDFEF74CFCBA
:10274000FFF738F9FFF7EEF8E1204002FDF7B8FF98
:10275000FFF7DDF80020FEF77BF80020FDF7CCFF47
:10276000FEE7000001B56423012269460248FFF735
:1027700068F8009808BD0000740000200000000008
:102780000000000001020304060708090000000021
:1027900001020304B427000800000020100000001C
:1027A000721E0008C427000810000020D804000092
:1027B000821E000800127A000000000000000000E5
:0427C0000000000015
:04000005080000B53A
:00000001FF
